:040000003BEF19F0C9
:1010000000010000000A00000064000000E8030086
:101010000010270000A086010040420F0080969833
:101020000000E1F50500CA9A3B00803F0020410026
:10103000C842007A44401C4650C34724744997185C
:101040004BBCBE4C6B6E4E03155079AD60F34971CD
:1010500000803FCDCC3DD7233C12833AB7D138C670
:101060002737388635C0D633CC2B32708930E7DB52
:101070002EE53C1E42A20D566F6C74616765203DE3
:09108000200020252E336700003A
:10108A00640E0001706F000E716FFDEF0EF0250EF9
:10109A008619D8B408D060C0D9FF61C0DAFF86C00B
:1010AA00DFFFFBEF0EF0000E766F000E756F62C069
:1010BA00F6FF63C0F7FF0800F5502E0AD8A42FD018
:1010CA00768D624B632B000E826F000E816F1CD0EF
:1010DA0081C00FF082C010F0000E126E0A0E116E5F
:1010EA00E8EC18F062C0F6FF63C0F7FF0800F5509D
:1010FA000F26000E1022D00E0F240001816FFF0E62
:10110A001020826F624B632B62C0F6FF63C0F7FF49
:10111A000800F5501FEC19F0D8A00AD0D9D7000E54
:10112A000001826F000E816F768902D0768314D017
:10113A0062C0F6FF63C0F7FF0001624B632B080031
:10114A00F5CF86F08651000AD8B40AEF0FF0670A85
:10115A00D8B4ECD7FDEF0EF0070E7615D8B4C1EF70
:10116A000EF076A904D0000E826F060E816F70C051
:10117A00D9FF71C0DAFFDECF83F0DECF84F0DDCF96
:10118A0085F0030E7027000E712385AF11D083C03E
:10119A002DF084C02EF085C02FF0FBEC18F02DC086
:1011AA0083F02EC084F02FC085F0030E0001751362
:1011BA00000E806F000E7F6F835184118511D8B4A1
:1011CA0086D0820E676FFF0E686F83C069F084C095
:1011DA006AF085C06BF086C06CF0100E05D0D8900E
:1011EA006C336B336A336933E82EF9D76951672553
:1011FA007F6F000E6821806F7F07D8A080077FC0AD
:10120A000FF080C010F0000E126E030E116EE8ECA3
:10121A0018F00FC07FF010C080F07FC007F080C0C8
:10122A0008F0000E0A6E0A0E096EB2EC16F007C03C
:10123A007FF008C080F0000180AF03D07F07D8A0FC
:10124A0080077F51000811EC0FF03FC077F040C0D3
:10125A0078F041C079F077C030F078C031F079C0C9
:10126A0032F083C033F084C034F085C035F041ECED
:10127A0014F030C077F031C078F032C079F077C01E
:10128A0055F078C056F079C057F0000E586E800EAF
:10129A00596E3F0E5A6E6AEC16F0D8B005D00001AE
:1012AA007F07D8A0800713D077C055F078C056F0D2
:1012BA0079C057F0000E586E200E596E410E5A6EC4
:1012CA006AEC16F0D8A003D000017F4B802B0001F6
:1012DA0080BF05D0805106E17F05D8B003D0010E4A
:1012EA00866F02D07FC086F076A346D280AF06D042
:1012FA00FC0E7F5DFF0E8059D8A00AD081517F5D18
:10130A008051800A676F8251800A6759D8A034D207
:10131A0081518211D8A476A303D08107D8A082076D
:10132A00825104E1090E815DD8A003D0080E866FB0
:10133A0002D081C086F0835184118511D8B4E0D0DF
:10134A0083C046F084C047F085C048F08651000843
:10135A007F2511EC0FF03FC049F040C04AF041C070
:10136A004BF035EC15F046C083F047C084F048C016
:10137A0085F083C04CF084C04DF085C04EF083C028
:10138A0015F084C016F085C017F0BBEC14F015C038
:10139A0024F016C025F017C026F018C027F0E0EC9C
:1013AA0017F024C02DF025C02EF026C02FF0FBEC3C
:1013BA0018F02DC049F02EC04AF02FC04BF03EEC79
:1013CA0012F049C055F04AC056F04BC057F0000E13
:1013DA00586E000E596E3F0E5A6E6AEC16F0D8A07F
:1013EA0014D083C049F084C04AF085C04BF0000E87
:1013FA004C6E000E4D6E3F0E4E6E3EEC12F049C022
:10140A0083F04AC084F04BC085F086C067F00001C3
:10141A00686B67BF6807D89067376837D8906737AF
:10142A006837040E6727000E6823010E6725F66EDB
:10143A00100E6821F76E83C015F084C016F085C0BF
:10144A0017F0BBEC14F00900F550155C0900F550D3
:10145A0016580900F55017580900F5501858D8A021
:10146A0018D083C030F084C031F085C032F0CD0E80
:10147A00336ECC0E346E3D0E356E41EC14F030C036
:10148A0083F031C084F032C085F000017F4B802B9D
:10149A0037D000018651040D010EF324F66E100EAA
:1014AA00F420F76E83C015F084C016F085C017F0DB
:1014BA00BBEC14F00900F550155C0900F5501658FC
:1014CA000900F55017580900F5501858D8B018D027
:1014DA0083C030F084C031F085C032F0000E336E24
:1014EA00200E346E410E356E41EC14F030C083F09C
:1014FA0031C084F032C085F000017F07D8A0800790
:10150A00030E00017515676F000E7615686F675137
:10151A006811D8B408D060C0D9FF61C0DAFF2D0EB7
:10152A00DF6E604B612B83C015F084C016F085C056
:10153A0017F0BBEC14F015C07BF016C07CF017C096
:10154A007DF018C07EF07BC001F07CC002F07DC047
:10155A0003F07EC004F000018651040D010EF3244D
:10156A00F66E100EF420F76E0900F5CF05F00900AB
:10157A00F5CF06F00900F5CF07F00A00F5CF08F01D
:10158A00F4EC16F00150300F60C0D9FF61C0DAFFE9
:10159A00DF6E0001604B612B7BC001F07CC002F062
:1015AA007DC003F07EC004F08651040D010EF324C1
:1015BA00F66E100EF420F76E0900F5CF05F009005B
:1015CA00F5CF06F00900F5CF07F00A00F5CF08F0CD
:1015DA00ADEC17F001C07BF002C07CF003C07DF0D7
:1015EA0004C07EF0000181518211D8B482D060C05B
:1015FA00D9FF61C0DAFF2E0EDF6E604B612B865178
:10160A00815F000E86BFFF0E825B5ED076A30ED08E
:10161A007B517C117D117E11D8A408D0000E866FF3
:10162A008651816F826B81BF82075FD07BC001F0D8
:10163A007CC002F07DC003F07EC004F08651040D28
:10164A00010EF324F66E100EF420F76E0900F5CFA2
:10165A0005F00900F5CF06F00900F5CF07F00A00FA
:10166A00F5CF08F0F4EC16F00150300F60C0D9FF46
:10167A0061C0DAFFDF6E0001604B612B7BC001F0B5
:10168A007CC002F07DC003F07EC004F08651040DD8
:10169A00010EF324F66E100EF420F76E0900F5CF52
:1016AA0005F00900F5CF06F00900F5CF07F00A00AA
:1016BA00F5CF08F0ADEC17F001C07BF002C07CF06A
:1016CA0003C07DF004C07EF0000186078629D8B4E5
:1016DA000CD09CD760C0D9FF61C0DAFF300EDF6E34
:1016EA00604B612B8107D8A0820781518211D8A44F
:1016FA00F1D760C0D9FF61C0DAFF650EDF6E604BBB
:10170A00612B80AF0AD07F6D801FD8B0802B60C05C
:10171A00D9FF61C0DAFF2D0E05D060C0D9FF61C0C4
:10172A00DAFF2B0EDF6E604B612B7FC007F080C0A3
:10173A0008F0000E0A6E0A0E096EB2EC16F0075097
:10174A00300F60C0D9FF61C0DAFFDF6E0001604B65
:10175A00612B7FC001F080C002F0000E046E0A0EF9
:10176A00036E75EC17F00150300F60C0D9FF61C0ED
:10177A00DAFFDF6E00013AD376A3EBD080AF0AD04E
:10178A00010E7F25676F000E8021686F6751815FA8
:10179A006851825B83C015F084C016F085C017F0CB
:1017AA00BBEC14F015C07BF016C07CF017C07DF0BE
:1017BA0018C07EF0000E0001866F0A0E8619D8B492
:1017CA0018D08651040D010EF324F66E100EF42083
:1017DA00F76E0900F5507B5D0900F5507C59090048
:1017EA00F5507D590900F5507E59D8A002D0862BB4
:1017FA00E4D78651815F000E86BFFF0E825B82BFEF
:10180A0006D082511BE10D0E815DD8B017D083C07E
:10181A0049F084C04AF085C04BF0815115EC11F0B3
:10182A003FC04CF040C04DF041C04EF03EEC12F0CB
:10183A0049C083F04AC084F04BC085F00001815151
:10184A0011EC0FF03FC072F040C073F041C074F069
:10185A0072C030F073C031F074C032F083C04CF003
:10186A0084C04DF085C04EF07BC024F07CC025F0CA
:10187A007DC026F07EC027F0E0EC17F024C02DF0E2
:10188A0025C02EF026C02FF0FBEC18F02DC049F031
:10189A002EC04AF02FC04BF03EEC12F049C033F094
:1018AA004AC034F04BC035F041EC14F030C072F04D
:1018BA0031C073F032C074F072C015F073C016F004
:1018CA0074C017F0BBEC14F015C07BF016C07CF0A6
:1018DA0017C07DF018C07EF01ED07BC001F07CC01E
:1018EA0002F07DC003F07EC004F00A0E056E000E01
:1018FA00066E000E076E000E086EF4EC16F001C0BC
:10190A007BF002C07CF003C07DF004C07EF00001D1
:10191A008107D8A08207000181518211D8B439D039
:10192A007BC001F07CC002F07DC003F07EC004F0F1
:10193A000A0E056E000E066E000E076E000E086E89
:10194A00ADEC17F00150021003100410D8A421D0F6
:10195A00C4D7000182BF06D082511BE10D0E815D02
:10196A00D8B017D083C049F084C04AF085C04BF084
:10197A00815115EC11F03FC04CF040C04DF041C010
:10198A004EF03EEC12F049C083F04AC084F04BC0DE
:10199A0085F0000180BF06D0805120E10A0E7F5DEC
:1019AA00D8B01CD0835184118511D8B456D083C0C5
:1019BA0015F084C016F085C017F0BBEC14F0155072
:1019CA00161017101810D8A448D0000180BF45D0AF
:1019DA00805104E1020E7F5DD8A03FD077C055F058
:1019EA0078C056F079C057F0700E586E890E596E4D
:1019FA00400E5A6E6AEC16F0D8B003D00001F70E0A
:101A0A0002D00001F80E7F27FF0E80237F5111ECD0
:101A1A000FF03FC077F040C078F041C079F083C042
:101A2A0001F084C002F085C003F077C004F078C0EA
:101A3A0005F079C006F014EC13F001C07BF002C087
:101A4A007CF003C07DF004C07EF0000E0001836FBD
:101A5A00000E846F000E856F33D083C015F084C0EA
:101A6A0016F085C017F0BBEC14F015C07BF016C059
:101A7A007CF017C07DF018C07EF083C055F084C09A
:101A8A0056F085C057F07BC024F07CC025F07DC09D
:101A9A0026F07EC027F0E0EC17F024C058F025C0ED
:101AAA0059F026C05AF030EC18F055C083F056C0F1
:101ABA0084F057C085F0000E0001806F000E7F6F22
:101ACA00010E866F0A0E8619D8B418D08651040DF5
:101ADA00010EF324F66E100EF420F76E0900F5508D
:101AEA007B5D0900F5507C590900F5507D590900C4
:101AFA00F5507E59D8A002D0862BE4D7030E75156F
:101B0A00676F000E7615686F67516811D8B450D0A8
:101B1A0060C0D9FF61C0DAFF2D0E47D07BC001F04B
:101B2A007CC002F07DC003F07EC004F08651040D33
:101B3A00010EF324F66E100EF420F76E0900F5CFAD
:101B4A0005F00900F5CF06F00900F5CF07F00A0005
:101B5A00F5CF08F0F4EC16F001C077F002C078F087
:101B6A0003C079F004C07AF077C001F078C002F0BF
:101B7A0079C003F07AC004F00A0E056E000E066EF4
:101B8A00000E076E000E086EADEC17F001C077F07C
:101B9A0002C078F003C079F004C07AF000017751EE
:101BAA00300F60C0D9FF61C0DAFFDF6E604B612B76
:101BBA0086078629D8B40CD0B1D760C0D9FF61C0D6
:101BCA00DAFF300EDF6E604B612B7F07D8A08007EB
:101BDA0080BF05D08051F1E17F05D8B0EED782BF32
:101BEA0009D0825104E1090E815DD8A003D0080E04
:101BFA00866F02D081C086F08651815F000E86BF53
:101C0A00FF0E825B8651D8B408D060C0D9FF61C08C
:101C1A00DAFF2E0EDF6E604B612B865111EC0FF04E
:101C2A003FC06DF040C06EF041C06FF083C033F02A
:101C3A0084C034F085C035F06DC030F06EC031F02C
:101C4A006FC032F041EC14F030C015F031C016F01C
:101C5A0032C017F0BBEC14F015C07BF016C07CF054
:101C6A0017C07DF018C07EF071D07BC001F07CC037
:101C7A0002F07DC003F07EC004F000018651040D1D
:101C8A00010EF324F66E100EF420F76E0900F5CF5C
:101C9A0005F00900F5CF06F00900F5CF07F00A00B4
:101CAA00F5CF08F0F4EC16F001C077F002C078F036
:101CBA0003C079F004C07AF077C001F078C002F06E
:101CCA0079C003F07AC004F00A0E056E000E066EA3
:101CDA00000E076E000E086EADEC17F001C077F02B
:101CEA0002C078F003C079F004C07AF0000177519D
:101CFA00300F60C0D9FF61C0DAFFDF6E604B612B25
:101D0A007BC001F07CC002F07DC003F07EC004F00D
:101D1A008651040D010EF324F66E100EF420F76EB0
:101D2A000900F5CF05F00900F5CF06F00900F5CF57
:101D3A0007F00A00F5CF08F0ADEC17F001C07BF010
:101D4A0002C07CF003C07DF004C07EF0000186076B
:101D5A008629D8B40CD089D760C0D9FF61C0DAFF10
:101D6A00300EDF6E604B612B8107D8A0820781514C
:101D7A008211D8B43DD0F0D781518211D8A408D0AD
:101D8A007B517C117D117E11D8A402D0814B822B0C
:101D9A00800E86BF7F0E676F8151865D8251800AF1
:101DAA006759D8B003D081C086F010D08251800A1A
:101DBA00676F8651815D800E86BF7F0E6759D8B0E6
:101DCA0005D08651816F826B81BF8207030E75151C
:101DDA00676F000E7615686F67516811D8B408D01E
:101DEA0060C0D9FF61C0DAFF2D0EDF6E604B612B38
:101DFA0062C0F6FF63C0F7FF624B632B0800F5CFA2
:101E0A0086F08651D8A44CEF08F060C0D9FF61C0B3
:101E1A00DAFF000EDF6E1200456E45AE01D1456C49
:101E2A004550800A120FD8A091D0000E126E030EF0
:101E3A00116E000E0A6E0A0E096E000E046E640E12
:101E4A00036E4550016E026A01BE020675EC17F078
:101E5A0001C007F002C008F0B2EC16F0090E072420
:101E6A000F6E000E0820106EE8EC18F0500E0F24CA
:101E7A00F66E100E1020F76E0900F5CF33F0090048
:101E8A00F5CF34F00A00F5CF35F0000E0A6E640E75
:101E9A00096E4550076E086A07BE0806B2EC16F0CE
:101EAA00120E07240F6E000E0820106E000E126E1E
:101EBA00030E116EE8EC18F0500E0F24F66E100E99
:101ECA001020F76E0900F5CF30F00900F5CF31F098
:101EDA000A00F5CF32F041EC14F030C042F031C0C4
:101EEA0043F032C044F042C030F043C031F044C045
:101EFA0032F0000E126E030E116E000E046E0A0E00
:101F0A00036E4550016E026A01BE020675EC17F0B7
:101F1A0001C00FF002C010F0E8EC18F0500E0F24C8
:101F2A00F66E100E1020F76E0900F5CF33F0090097
:101F3A00F5CF34F00A00F5CF35F041EC14F030C09B
:101F4A003FF031C040F032C041F012004550800AE3
:101F5A00750FD8A053D0000E0A6E0A0E096E4550AE
:101F6A00076E086A07BE0806B2EC16F0090E0724C7
:101F7A000F6E000E0820106E000E126E030E116E08
:101F8A00E8EC18F0500E0F24F66E100E1020F76EC3
:101F9A000900F5CF30F00900F5CF31F00A00F5CF8E
:101FAA0032F0000E126E030E116E000E046E0A0E4F
:101FBA00036E4550016E026A01BE020675EC17F007
:101FCA0001C00FF002C010F0E8EC18F0500E0F2418
:101FDA00F66E100E1020F76E0900F5CF33F00900E7
:101FEA00F5CF34F00A00F5CF35F041EC14F030C0EB
:101FFA003FF031C040F032C041F012004550030DAD
:10200A00500EF324F66E100EF420F76E0900F5CF89
:10201A003FF00900F5CF40F00A00F5CF41F0120079
:10202A004550800A120FD8A091D0000E126E030EEE
:10203A00116E000E0A6E0A0E096E000E046E640E10
:10204A00036E4550016E026A01BE020675EC17F076
:10205A0001C007F002C008F0B2EC16F0090E07241E
:10206A000F6E000E0820106EE8EC18F0290E0F24EF
:10207A00F66E100E1020F76E0900F5CF33F0090046
:10208A00F5CF34F00A00F5CF35F0000E0A6E640E73
:10209A00096E4550076E086A07BE0806B2EC16F0CC
:1020AA00120E07240F6E000E0820106E000E126E1C
:1020BA00030E116EE8EC18F0290E0F24F66E100EBE
:1020CA001020F76E0900F5CF30F00900F5CF31F096
:1020DA000A00F5CF32F041EC14F030C042F031C0C2
:1020EA0043F032C044F042C030F043C031F044C043
:1020FA0032F0000E126E030E116E000E046E0A0EFE
:10210A00036E4550016E026A01BE020675EC17F0B5
:10211A0001C00FF002C010F0E8EC18F0290E0F24ED
:10212A00F66E100E1020F76E0900F5CF33F0090095
:10213A00F5CF34F00A00F5CF35F041EC14F030C099
:10214A003FF031C040F032C041F012004550800AE1
:10215A00750FD8A053D0000E0A6E0A0E096E4550AC
:10216A00076E086A07BE0806B2EC16F0090E0724C5
:10217A000F6E000E0820106E000E126E030E116E06
:10218A00E8EC18F0290E0F24F66E100E1020F76EE8
:10219A000900F5CF30F00900F5CF31F00A00F5CF8C
:1021AA0032F0000E126E030E116E000E046E0A0E4D
:1021BA00036E4550016E026A01BE020675EC17F005
:1021CA0001C00FF002C010F0E8EC18F0290E0F243D
:1021DA00F66E100E1020F76E0900F5CF33F00900E5
:1021EA00F5CF34F00A00F5CF35F041EC14F030C0E9
:1021FA003FF031C040F032C041F012004550030DAB
:10220A00290EF324F66E100EF420F76E0900F5CFAE
:10221A003FF00900F5CF40F00A00F5CF41F0120077
:10222A00486E6D0E48649FD0000E126E030E116E3A
:10223A00000E0A6E0A0E096E000E046E640E036E1C
:10224A0048C001F0026A75EC17F001C007F002C03D
:10225A0008F0B2EC16F0090E07240F6E000E0820E3
:10226A00106EE8EC18F0500E0F24F66E100E1020C7
:10227A00F76E0900F5CF33F00900F5CF34F00A0004
:10228A00F5CF35F0000E0A6E640E096E48C007F0ED
:10229A00086AB2EC16F0120E07240F6E000E082020
:1022AA00106E000E126E030E116EE8EC18F0500E4E
:1022BA000F24F66E100E1020F76E0900F5CF30F0DD
:1022CA000900F5CF31F00A00F5CF32F041EC14F0F5
:1022DA0030C045F031C046F032C047F0000E126EF1
:1022EA00030E116E000E046E0A0E036E48C001F052
:1022FA00026A75EC17F001C00FF002C010F0E8ECAA
:10230A0018F0500E0F24F66E100E1020F76E09000A
:10231A00F5CF33F00900F5CF34F00A00F5CF35F0E8
:10232A0045C030F046C031F047C032F041EC14F0FD
:10233A0030C042F031C043F032C044F042C030F005
:10234A0043C031F044C032F0000E336E000E346EDA
:10235A003F0E356E41EC14F030C03FF031C040F012
:10236A0032C041F012000A0E486463D0000E126EA9
:10237A00030E116E000E046E0A0E036E48C001F0C1
:10238A00026A75EC17F001C00FF002C010F0E8EC19
:10239A0018F0500E0F24F66E100E1020F76E09007A
:1023AA00F5CF33F00900F5CF34F00A00F5CF35F058
:1023BA00000E0A6E0A0E096E48C007F0086AB2ECEF
:1023CA0016F0090E07240F6E000E0820106E000E7C
:1023DA00126E030E116EE8EC18F0500E0F24F66E12
:1023EA00100E1020F76E0900F5CF30F00900F5CF76
:1023FA0031F00A00F5CF32F041EC14F030C045F06C
:10240A0031C046F032C047F045C030F046C031F026
:10241A0047C032F0000E336E000E346E3F0E356E3A
:10242A0041EC14F030C03FF031C040F032C041F00E
:10243A0012004850030D500EF324F66E100EF420CD
:10244A00F76E0900F5CF30F00900F5CF31F00A0038
:10245A00F5CF32F0000E336E000E346E3F0E356E3D
:10246A0041EC14F030C03FF031C040F032C041F0CE
:10247A0012004BC04FF0506A516A4A344F3601E39A
:10248A0050804F50546E4EC04FF0506A516A4D34CE
:10249A004F3601E350804F50536E5450D8B40BD08E
:1024AA005350545CD8B00ED05450000853244F6E89
:1024BA00180E4F6407D04CC049F04DC04AF04EC0C8
:1024CA004BF012005350D8B40BD05450535CD8B0D0
:1024DA000ED05350000854244F6E180E4F6407D084
:1024EA0049C049F04AC04AF04BC04BF01200060EF0
:1024FA00526E4BBE528E4EBE528C4A8EFF0E4916FB
:10250A00FF0E4A16000E4B164D8EFF0E4C16FF0E8E
:10251A004D16000E4E165350545CD8B01BD0D890AE
:10252A004C364D364E36530654505318D8B40DD047
:10253A00520652C04FF0070E4F16D8B406D0EFD746
:10254A00D8904B324A324932542A53505418D8B48C
:10255A001FD0F6D75450535CD8B01AD0D890493609
:10256A004A364B36540654505318D8B40DD0520636
:10257A0052C04FF0070E4F16D8B406D0EFD7D890F6
:10258A004E324D324C32532A53505418D8A4F7D7EE
:10259A0052AE0CD0FF0E491AFF0E4A1AFF0E4B1A02
:1025AA00010E4926000E4A22000E4B2252AC0CD0D4
:1025BA00FF0E4C1AFF0E4D1AFF0E4E1A010E4C2634
:1025CA00000E4D22000E4E22000E526E49504C262D
:1025DA004A504D224B504E224EAE0ED0FF0E4C1A90
:1025EA00FF0E4D1AFF0E4E1A010E4C26000E4D22FA
:1025FA00000E4E22010E526E4CC001F04DC002F088
:10260A004EC003F054C004F052C005F013EC16F0AB
:10261A0001C049F002C04AF003C04BF0120003C0E7
:10262A0007F0086A096A0234073601E3088007508E
:10263A000F6E0F50D8A409D0000E016E000E026E64
:10264A00000E036E000E046E120006C007F0086A40
:10265A00096A0534073601E3088007500E6E0E50EA
:10266A00D8A409D0000E016E000E026E000E036E91
:10267A00000E046E1200028EFF0E0116FF0E0216E5
:10268A00000E0316058EFF0E0416FF0E0516000E29
:10269A000616000E0A6E000E0B6E000E0C6E000E71
:1026AA000D6E7F0E0F5E0E50980F0F5E180E0E6E97
:1026BA00D8900A360B360C360D360450015C05509C
:1026CA00025806500358D8A007D00450015E05509E
:1026DA00025A0650035A0A80D89001360236033647
:1026EA000E2EE6D70FAE16D00F50800A970FD8B02D
:1026FA0009D0000E016E000E026E000E036E000E6F
:10270A00046E1200D8900D320C320B320A320F3E90
:10271A00F9D715D0170E0F640FD0000E016E000EF8
:10272A00026E000E036E000E046E1200D8900A3676
:10273A000B360C360D360F060F50D8A4F7D70AC041
:10274A0001F00BC002F00CC003F00DC004F012003F
:10275A00033404340C6E0C50D8A409D0000E016E58
:10276A00000E026E000E036E000E046E1200063496
:10277A0007340B6E0B50D8A409D0000E016E000E60
:10278A00026E000E036E000E046E1200038EFF0E20
:10279A000116FF0E0216FF0E0316000E0416068E11
:1027AA00FF0E0416FF0E0516FF0E0616000E07167C
:1027BA00000E076E000E086E000E096E000E0A6EFD
:1027CA007F0E0C5E0B50A00F0C5E200E0B6ED89085
:1027DA000736083609360A360450015C0550025895
:1027EA000650035807500458D8A009D00450015E77
:1027FA000550025A0650035A0750045A0780D890C7
:10280A0001360236033604360B2EE1D70CAE16D04B
:10281A000C50800A9F0FD8B009D0000E016E000E2E
:10282A00026E000E036E000E046E1200D8900A3279
:10283A000932083207320C3EF9D715D01F0E0C6444
:10284A000FD0000E016E000E026E000E036E000E17
:10285A00046E1200D8900736083609360A360C0676
:10286A000C50D8A4F7D707C001F008C002F009C07D
:10287A0003F00AC004F0120032C036F0376A386A30
:10288A003134363601E337803650396E3950D8A4A0
:10289A0007D0000E306E000E316E000E326E12003E
:1028AA0035C036F0376A386A3434363601E3378051
:1028BA0036503E6E3E50D8A407D0000E306E000E41
:1028CA00316E000E326E12003E507B0F392632C036
:1028DA003EF035503E1A800E3E16318E348EFF0E73
:1028EA003316FF0E3416000E3516000E3A6E000E21
:1028FA003B6E000E3C6E070E3D6E30A006D0335084
:10290A003A2634503B2235503C22D890323231326A
:10291A003032D8903336343635363D2EEED7090E5E
:10292A003D6E30A006D033503A2634503B22355003
:10293A003C22D890323231323032D8903C323B325B
:10294A003A323D2EEED73AC001F03BC002F03CC00D
:10295A0003F039C004F03EC005F013EC16F001C0D4
:10296A0030F002C031F003C032F0120017C019F083
:10297A001A6A1B6A1634193601E31A801950236E33
:10298A002350D8A409D0000E156E000E166E000E44
:10299A00176E000E186E1200170E196E15C01AF077
:1029AA0016C01BF017C01CF019281D6E04D0D89051
:1029BA001C321B321A321D2EFAD71A501E6E168E70
:1029CA00FF0E1516FF0E1616000E171615501F6E5F
:1029DA001650206E1750216E226A8E0E235E23AE89
:1029EA0016D02350800A8F0FD8B009D0000E156E6A
:1029FA00000E166E000E176E000E186E1200D8909A
:102A0A002232213220321F32233EF9D715D0170E37
:102A1A0023640FD0000E156E000E166E000E176E90
:102A2A00000E186E1200D8901F3620362136223634
:102A3A0023062350D8A4F7D71E50D8B408D0221E94
:102A4A00211E201E1F6C000E2022212222221FC0BE
:102A5A0015F020C016F021C017F022C018F012009D
:102A6A0048C04CF04D6A4E6A47344C3601E34D80FB
:102A7A004C50536E5350D8A407D0000E466E000E29
:102A8A00476E000E486E12004BC04CF04D6A4E6AFB
:102A9A004A344C3601E34D804C50546E5450D8A4FD
:102AAA0007D0000E466E000E476E000E486E1200EA
:102ABA00000E506E000E516E000E526E5450890F69
:102ACA00535E48C054F04B50541A800E5416478E29
:102ADA00FF0E4616FF0E4716000E48164A8EFF0EC8
:102AEA004916FF0E4A16000E4B16180E4F6ED89056
:102AFA005036513652364950465C4A5047584B5028
:102B0A004858D8A007D04950465E4A50475A4B50B9
:102B1A00485A5080D8904636473648364F2EE7D71F
:102B2A0050C001F051C002F052C003F053C004F08B
:102B3A0054C005F013EC16F001C046F002C047F08D
:102B4A0003C048F0120046EC19F06FEC18F00C0EB6
:102B5A0050EC18F0000E00018B6F000E8A6F000E09
:102B6A002EEC19F077EC19F00009D8B4FBD766EC13
:102B7A0019F001C08AF002C08BF0000E336EA00E6D
:102B8A00346E400E356E8AC009F08BC00AF00DEC27
:102B9A0019F009C030F00AC031F00BC032F041EC34
:102BAA0014F030C046F031C047F032C048F0C00ED1
:102BBA00496E7F0E4A6E440E4B6E35EC15F046C0D8
:102BCA0087F047C088F048C089F0770E056E100E6E
:102BDA00066E35EC17F08C0E0001606F000E616F07
:102BEA00820E626F100E636F87C064F088C065F052
:102BFA0089C066F045EC08F08C0E056E000E066E74
:102C0A0035EC17F0000E056E000E0EEC18F08AC0B7
:102C1A0001F08BC002F08DEC18F09CD70450D8B4A8
:102C2A0005D0015002100310D8A40CD0000E016E7A
:102C3A00000E026E000E036E1200042AD8900332B0
:102C4A0002320132000E0114066E000E0214076EE3
:102C5A00FE0E0314086E065007100810D8B40CD0E4
:102C6A00ECD7042A010E0126000E0222000E0322CE
:102C7A00D890033202320132000E0114066E000EA1
:102C8A000214076EFF0E0314086E06500710081090
:102C9A00D8B406D0E6D70406D890013602360336F1
:102CAA0002BE03D0020E0460F6D704A0029ED8909A
:102CBA000432045003120550D8A4038E01C001F057
:102CCA0002C002F003C003F0120057AE16D055C07E
:102CDA005BF056C05CF057C05DF05B1E5C1E5D1E6B
:102CEA005B2A000E5C225D22000E5B24556E000EEC
:102CFA005C20566E800E5D20576E5AAE16D058C0B4
:102D0A005BF059C05CF05AC05DF05B1E5C1E5D1E34
:102D1A005B2A000E5C225D22000E5B24586E000EB8
:102D2A005C20596E800E5D205A6E000E551A000EF8
:102D3A00561A800E571A000E581A000E591A800E8B
:102D4A005A1A5850555C595056585A505758D8B074
:102D5A0002D0D8901200D8801200000E0C6E0AAE73
:102D6A0006D0096C0A1ED8B00A2A010E0C6E08AEEB
:102D7A0006D0076C081ED8B0082A010E0C1A000EDD
:102D8A000E6E000E0D6E09500A10D8B41CD0010E3A
:102D9A000B6E04D0D89009360A360B2A0AAEFAD737
:102DAA00D8900D360E360950075C0A500858D8A03C
:102DBA0005D00950075E0A50085A0D80D8900A3289
:102DCA0009320B2EEDD70C50D8B404D00D6C0E1E60
:102DDA00D8B00E2A0DC007F00EC008F01200000E7F
:102DEA00096E000E0A6E000E0B6E000E0C6E055078
:102DFA00061007100810D8B42AD0010E0D6E06D09E
:102E0A00D89005360636073608360D2A08AEF8D7A2
:102E1A00D89009360A360B360C360550015C065036
:102E2A0002580750035808500458D8A009D0055032
:102E3A00015E0650025A0750035A0850045A098084
:102E4A00D89008320732063205320D2EE1D709C072
:102E5A0001F00AC002F00BC003F00CC004F012002B
:102E6A00000E096E1ED00950010D05C007F006C0FC
:102E7A0008F0F3500726F450082207C0F6FF08C0EE
:102E8A00F7FF000EF86E0F0EF76403D00800F55036
:102E9A0005D0F6CFE9FFF7CFEAFFEF50A5EC18F01F
:102EAA00092A0950010D05C007F006C008F0F350C1
:102EBA000726F450082207C0F6FF08C0F7FF000EE5
:102ECA00F86E0F0EF76403D00800F55005D0F6CF60
:102EDA00E9FFF7CFEAFFEF500009D8B41200C3D7D1
:102EEA00000E066E02AE06D0016C021ED8B0022A8F
:102EFA00010E066E04AE04D0036C041ED8B0042A78
:102F0A0003500410D8B418D0010E056E04D0D8901E
:102F1A0003360436052A04AEFAD70350015C04507E
:102F2A000258D8A004D00350015E0450025AD89027
:102F3A0004320332052EF1D70650D8B404D0016CFE
:102F4A00021ED8B0022A01C001F002C002F012002B
:102F5A000550061007100810D8B424D0010E096EC7
:102F6A0006D0D8900536063607360836092A08AE3E
:102F7A00F8D70550015C065002580750035808500C
:102F8A000458D8A008D00550015E0650025A0750CE
:102F9A00035A0850045AD8900832073206320532CA
:102FAA00092EE7D701C001F002C002F003C003F006
:102FBA0004C004F012008E0E2C6E06D0D890273270
:102FCA002632253224322C2A000E2414286E000EB2
:102FDA002514296E000E26142A6EFF0E27142B6E56
:102FEA00285029102A102B10D8A4E8D724C001F0A1
:102FFA0025C002F026C003F02CC004F0000E056EB6
:10300A0013EC16F001C024F002C025F003C026F02C
:10301A0012000A6E020E056012000F0E0A6401D039
:10302A0012000504D8B402D0800E01D0C00E0AC026
:10303A0006F0076A0610086E0750096E085050EC31
:10304A0018F0110E066E3A0EE82EFED7062EFCD7A1
:10305A0000F000F01200585059105A10D8B406D097
:10306A00000E581A000E591A800E5A1A55C049F005
:10307A0056C04AF057C04BF058C04CF059C04DF0FA
:10308A005AC04EF03EEC12F049C055F04AC056F014
:10309A004BC057F01200046E110E036E3A0EE82E62
:1030AA00FED7032EFCD700F000F0000E016E04508C
:1030BA00BDEC18F00438F00B046E040E036E3E0EDD
:1030CA00E82EFED7032EFCD7000E016E0450BDEC8D
:1030DA0018F01200000E816E000E936E818E310E72
:1030EA00056EB20EE82EFED7052EFCD700F000F0D2
:1030FA00320E50EC18F0280E50EC18F00C0E50EC72
:10310A0018F0010E50EC18F0060E50EC18F01200F0
:10311A0001C003F002C004F0D89004320332D89000
:10312A00043203320350BB6E01C003F0030E0316D0
:10313A00033AF00E0316BA50CF0B0310BA6E120000
:10314A00046E110E036E3A0EE82EFED7032EFCD73C
:10315A0000F000F0010E016E0450BDEC18F00438C6
:10316A00F00B046E010E016E0450BDEC18F0120053
:10317A00026E02380F0B026E02500F0B026E815064
:10318A00F00B816E81500210816E01B002D0819ADB
:10319A0001D0818A819C818881981200000E8A6EF2
:1031AA00000E896E1F0E7E6E000E7F6E000E8B6EF5
:1031BA00000E936EFD0E946E000E7C6E9268F18E78
:1031CA00F296F18E12000F501102F3CF13F0F4CFE2
:1031DA0014F00F501202F350142610501102F3503B
:1031EA00142613C00FF014C010F012002D502E1028
:1031FA002F10D8B406D0000E2D1A000E2E1A800EEB
:10320A002F1A2DC02DF02EC02EF02FC02FF0120035
:10321A0009C001F00AC002F0036A8E0E046E000EA5
:10322A00056E13EC16F001C009F002C00AF003C0E3
:10323A000BF01200036E000E026E3A0E036005D008
:10324A002F0E036402D0010E026E02C001F001309B
:10325A001200026E02C001F001460146C250011876
:10326A00C30B0118C26EC280C282120000EE87F040
:10327A00190EEE6AE806FDE1000EF86E0001A8EFED
:10328A0015F0D3EC18F07DEC19F051EC19F05CEC68
:10329A0019F070EC19F01200010EC26E000EC16E28
:1032AA00880EC06E000EC36E000EC46E1200020EAF
:1032BA00CA6E7C0ECB6E000ECC6E9E9282EC19F01A
:1032CA001200C450046E036AC3500324016E000E38
:1032DA000420026E12003C0EBA6E7C0EBB6E000E0B
:1032EA00BC6E1200C2B202D0010E1200000E120011
:0E32FA00620ED36E000E9B6E1200CA8412008C
:020000040020DA
:08000000FFFFFFFFFFFFFFFF00
:020000040030CA
:0E000000FFC8191EFF0D81FF0FC00FE00F405B
:00000001FF
